{
  "_format": "hh-sol-artifact-1",
  "contractName": "BxlersNFT",
  "sourceName": "contracts/BxlersNFT.sol",
  "abi": [
    {
      "inputs": [],
      "stateMutability": "payable",
      "type": "constructor"
    },
    {
      "anonymous": false,
      "inputs": [
        {
          "indexed": true,
          "internalType": "address",
          "name": "owner",
          "type": "address"
        },
        {
          "indexed": true,
          "internalType": "address",
          "name": "approved",
          "type": "address"
        },
        {
          "indexed": true,
          "internalType": "uint256",
          "name": "tokenId",
          "type": "uint256"
        }
      ],
      "name": "Approval",
      "type": "event"
    },
    {
      "anonymous": false,
      "inputs": [
        {
          "indexed": true,
          "internalType": "address",
          "name": "owner",
          "type": "address"
        },
        {
          "indexed": true,
          "internalType": "address",
          "name": "operator",
          "type": "address"
        },
        {
          "indexed": false,
          "internalType": "bool",
          "name": "approved",
          "type": "bool"
        }
      ],
      "name": "ApprovalForAll",
      "type": "event"
    },
    {
      "anonymous": false,
      "inputs": [
        {
          "indexed": true,
          "internalType": "address",
          "name": "previousOwner",
          "type": "address"
        },
        {
          "indexed": true,
          "internalType": "address",
          "name": "newOwner",
          "type": "address"
        }
      ],
      "name": "OwnershipTransferred",
      "type": "event"
    },
    {
      "anonymous": false,
      "inputs": [
        {
          "indexed": true,
          "internalType": "address",
          "name": "from",
          "type": "address"
        },
        {
          "indexed": true,
          "internalType": "address",
          "name": "to",
          "type": "address"
        },
        {
          "indexed": true,
          "internalType": "uint256",
          "name": "tokenId",
          "type": "uint256"
        }
      ],
      "name": "Transfer",
      "type": "event"
    },
    {
      "inputs": [
        {
          "internalType": "address",
          "name": "to",
          "type": "address"
        },
        {
          "internalType": "uint256",
          "name": "tokenId",
          "type": "uint256"
        }
      ],
      "name": "approve",
      "outputs": [],
      "stateMutability": "nonpayable",
      "type": "function"
    },
    {
      "inputs": [
        {
          "internalType": "address",
          "name": "owner",
          "type": "address"
        }
      ],
      "name": "balanceOf",
      "outputs": [
        {
          "internalType": "uint256",
          "name": "",
          "type": "uint256"
        }
      ],
      "stateMutability": "view",
      "type": "function"
    },
    {
      "inputs": [
        {
          "internalType": "uint256",
          "name": "tokenId",
          "type": "uint256"
        }
      ],
      "name": "getApproved",
      "outputs": [
        {
          "internalType": "address",
          "name": "",
          "type": "address"
        }
      ],
      "stateMutability": "view",
      "type": "function"
    },
    {
      "inputs": [
        {
          "internalType": "address",
          "name": "owner",
          "type": "address"
        },
        {
          "internalType": "address",
          "name": "operator",
          "type": "address"
        }
      ],
      "name": "isApprovedForAll",
      "outputs": [
        {
          "internalType": "bool",
          "name": "",
          "type": "bool"
        }
      ],
      "stateMutability": "view",
      "type": "function"
    },
    {
      "inputs": [],
      "name": "isPublicMintEnabled",
      "outputs": [
        {
          "internalType": "bool",
          "name": "",
          "type": "bool"
        }
      ],
      "stateMutability": "view",
      "type": "function"
    },
    {
      "inputs": [],
      "name": "maxPerWallet",
      "outputs": [
        {
          "internalType": "uint256",
          "name": "",
          "type": "uint256"
        }
      ],
      "stateMutability": "view",
      "type": "function"
    },
    {
      "inputs": [],
      "name": "maxSupply",
      "outputs": [
        {
          "internalType": "uint256",
          "name": "",
          "type": "uint256"
        }
      ],
      "stateMutability": "view",
      "type": "function"
    },
    {
      "inputs": [
        {
          "internalType": "uint256",
          "name": "_quantity",
          "type": "uint256"
        }
      ],
      "name": "mint",
      "outputs": [],
      "stateMutability": "payable",
      "type": "function"
    },
    {
      "inputs": [],
      "name": "mintPrice",
      "outputs": [
        {
          "internalType": "uint256",
          "name": "",
          "type": "uint256"
        }
      ],
      "stateMutability": "view",
      "type": "function"
    },
    {
      "inputs": [],
      "name": "name",
      "outputs": [
        {
          "internalType": "string",
          "name": "",
          "type": "string"
        }
      ],
      "stateMutability": "view",
      "type": "function"
    },
    {
      "inputs": [],
      "name": "owner",
      "outputs": [
        {
          "internalType": "address",
          "name": "",
          "type": "address"
        }
      ],
      "stateMutability": "view",
      "type": "function"
    },
    {
      "inputs": [
        {
          "internalType": "uint256",
          "name": "tokenId",
          "type": "uint256"
        }
      ],
      "name": "ownerOf",
      "outputs": [
        {
          "internalType": "address",
          "name": "",
          "type": "address"
        }
      ],
      "stateMutability": "view",
      "type": "function"
    },
    {
      "inputs": [],
      "name": "renounceOwnership",
      "outputs": [],
      "stateMutability": "nonpayable",
      "type": "function"
    },
    {
      "inputs": [
        {
          "internalType": "address",
          "name": "from",
          "type": "address"
        },
        {
          "internalType": "address",
          "name": "to",
          "type": "address"
        },
        {
          "internalType": "uint256",
          "name": "tokenId",
          "type": "uint256"
        }
      ],
      "name": "safeTransferFrom",
      "outputs": [],
      "stateMutability": "nonpayable",
      "type": "function"
    },
    {
      "inputs": [
        {
          "internalType": "address",
          "name": "from",
          "type": "address"
        },
        {
          "internalType": "address",
          "name": "to",
          "type": "address"
        },
        {
          "internalType": "uint256",
          "name": "tokenId",
          "type": "uint256"
        },
        {
          "internalType": "bytes",
          "name": "_data",
          "type": "bytes"
        }
      ],
      "name": "safeTransferFrom",
      "outputs": [],
      "stateMutability": "nonpayable",
      "type": "function"
    },
    {
      "inputs": [
        {
          "internalType": "address",
          "name": "operator",
          "type": "address"
        },
        {
          "internalType": "bool",
          "name": "approved",
          "type": "bool"
        }
      ],
      "name": "setApprovalForAll",
      "outputs": [],
      "stateMutability": "nonpayable",
      "type": "function"
    },
    {
      "inputs": [
        {
          "internalType": "string",
          "name": "_baseTokenUri",
          "type": "string"
        }
      ],
      "name": "setBaseTokenUri",
      "outputs": [],
      "stateMutability": "nonpayable",
      "type": "function"
    },
    {
      "inputs": [
        {
          "internalType": "bool",
          "name": "_isPublicMintEnabled",
          "type": "bool"
        }
      ],
      "name": "setIsPublicMintEnabled",
      "outputs": [],
      "stateMutability": "nonpayable",
      "type": "function"
    },
    {
      "inputs": [
        {
          "internalType": "bytes4",
          "name": "interfaceId",
          "type": "bytes4"
        }
      ],
      "name": "supportsInterface",
      "outputs": [
        {
          "internalType": "bool",
          "name": "",
          "type": "bool"
        }
      ],
      "stateMutability": "view",
      "type": "function"
    },
    {
      "inputs": [],
      "name": "symbol",
      "outputs": [
        {
          "internalType": "string",
          "name": "",
          "type": "string"
        }
      ],
      "stateMutability": "view",
      "type": "function"
    },
    {
      "inputs": [
        {
          "internalType": "uint256",
          "name": "_tokenId",
          "type": "uint256"
        }
      ],
      "name": "tokenURI",
      "outputs": [
        {
          "internalType": "string",
          "name": "",
          "type": "string"
        }
      ],
      "stateMutability": "view",
      "type": "function"
    },
    {
      "inputs": [],
      "name": "totalSupply",
      "outputs": [
        {
          "internalType": "uint256",
          "name": "",
          "type": "uint256"
        }
      ],
      "stateMutability": "view",
      "type": "function"
    },
    {
      "inputs": [
        {
          "internalType": "address",
          "name": "from",
          "type": "address"
        },
        {
          "internalType": "address",
          "name": "to",
          "type": "address"
        },
        {
          "internalType": "uint256",
          "name": "tokenId",
          "type": "uint256"
        }
      ],
      "name": "transferFrom",
      "outputs": [],
      "stateMutability": "nonpayable",
      "type": "function"
    },
    {
      "inputs": [
        {
          "internalType": "address",
          "name": "newOwner",
          "type": "address"
        }
      ],
      "name": "transferOwnership",
      "outputs": [],
      "stateMutability": "nonpayable",
      "type": "function"
    },
    {
      "inputs": [
        {
          "internalType": "address",
          "name": "",
          "type": "address"
        }
      ],
      "name": "walletMints",
      "outputs": [
        {
          "internalType": "uint256",
          "name": "",
          "type": "uint256"
        }
      ],
      "stateMutability": "view",
      "type": "function"
    },
    {
      "inputs": [],
      "name": "withdraw",
      "outputs": [],
      "stateMutability": "nonpayable",
      "type": "function"
    },
    {
      "inputs": [],
      "name": "withdrawalAddress",
      "outputs": [
        {
          "internalType": "address payable",
          "name": "",
          "type": "address"
        }
      ],
      "stateMutability": "view",
      "type": "function"
    }
  ],
  "bytecode": "0x60806040526040518060400160405280600681526020017f42786c65727300000000000000000000000000000000000000000000000000008152506040518060400160405280600381526020017f42584c0000000000000000000000000000000000000000000000000000000000815250816000908051906020019062000088929190620001db565b508060019080519060200190620000a1929190620001db565b505050620000c4620000b86200010d60201b60201c565b6200011560201b60201c565b67016345785d8a000060078190555060006008819055506103e86009819055506004600a819055506001600b60006101000a81548160ff021916908315150217905550620002f0565b600033905090565b6000600660009054906101000a900473ffffffffffffffffffffffffffffffffffffffff16905081600660006101000a81548173ffffffffffffffffffffffffffffffffffffffff021916908373ffffffffffffffffffffffffffffffffffffffff1602179055508173ffffffffffffffffffffffffffffffffffffffff168173ffffffffffffffffffffffffffffffffffffffff167f8be0079c531659141344cd1fd0a4f28419497f9722a3daafe3b4186f6b6457e060405160405180910390a35050565b828054620001e9906200028b565b90600052602060002090601f0160209004810192826200020d576000855562000259565b82601f106200022857805160ff191683800117855562000259565b8280016001018555821562000259579182015b82811115620002585782518255916020019190600101906200023b565b5b5090506200026891906200026c565b5090565b5b80821115620002875760008160009055506001016200026d565b5090565b60006002820490506001821680620002a457607f821691505b60208210811415620002bb57620002ba620002c1565b5b50919050565b7f4e487b7100000000000000000000000000000000000000000000000000000000600052602260045260246000fd5b61370e80620003006000396000f3fe60806040526004361061019c5760003560e01c806370a08231116100ec578063b88d4fde1161008a578063e985e9c511610064578063e985e9c514610593578063f0293fd3146105d0578063f2bcd0221461060d578063f2fde38b146106385761019c565b8063b88d4fde14610502578063c87b56dd1461052b578063d5abeb01146105685761019c565b806395652cfa116100c657806395652cfa1461046957806395d89b4114610492578063a0712d68146104bd578063a22cb465146104d95761019c565b806370a08231146103ea578063715018a6146104275780638da5cb5b1461043e5761019c565b80632373ac221161015957806342842e0e1161013357806342842e0e1461032e578063453c2310146103575780636352211e146103825780636817c76c146103bf5761019c565b80632373ac22146102c557806323b872dd146102ee5780633ccfd60b146103175761019c565b80630116bc2d146101a157806301ffc9a7146101cc57806306fdde0314610209578063081812fc14610234578063095ea7b31461027157806318160ddd1461029a575b600080fd5b3480156101ad57600080fd5b506101b6610661565b6040516101c39190612a34565b60405180910390f35b3480156101d857600080fd5b506101f360048036038101906101ee919061248a565b610674565b6040516102009190612a34565b60405180910390f35b34801561021557600080fd5b5061021e610756565b60405161022b9190612a4f565b60405180910390f35b34801561024057600080fd5b5061025b60048036038101906102569190612521565b6107e8565b60405161026891906129b2565b60405180910390f35b34801561027d57600080fd5b5061029860048036038101906102939190612425565b61086d565b005b3480156102a657600080fd5b506102af610985565b6040516102bc9190612d5b565b60405180910390f35b3480156102d157600080fd5b506102ec60048036038101906102e79190612461565b61098b565b005b3480156102fa57600080fd5b506103156004803603810190610310919061231f565b610a24565b005b34801561032357600080fd5b5061032c610a84565b005b34801561033a57600080fd5b506103556004803603810190610350919061231f565b610bd1565b005b34801561036357600080fd5b5061036c610bf1565b6040516103799190612d5b565b60405180910390f35b34801561038e57600080fd5b506103a960048036038101906103a49190612521565b610bf7565b6040516103b691906129b2565b60405180910390f35b3480156103cb57600080fd5b506103d4610ca9565b6040516103e19190612d5b565b60405180910390f35b3480156103f657600080fd5b50610411600480360381019061040c91906122ba565b610caf565b60405161041e9190612d5b565b60405180910390f35b34801561043357600080fd5b5061043c610d67565b005b34801561044a57600080fd5b50610453610def565b60405161046091906129b2565b60405180910390f35b34801561047557600080fd5b50610490600480360381019061048b91906124dc565b610e19565b005b34801561049e57600080fd5b506104a7610eab565b6040516104b49190612a4f565b60405180910390f35b6104d760048036038101906104d29190612521565b610f3d565b005b3480156104e557600080fd5b5061050060048036038101906104fb91906123e9565b611109565b005b34801561050e57600080fd5b506105296004803603810190610524919061236e565b61111f565b005b34801561053757600080fd5b50610552600480360381019061054d9190612521565b611181565b60405161055f9190612a4f565b60405180910390f35b34801561057457600080fd5b5061057d6111fd565b60405161058a9190612d5b565b60405180910390f35b34801561059f57600080fd5b506105ba60048036038101906105b591906122e3565b611203565b6040516105c79190612a34565b60405180910390f35b3480156105dc57600080fd5b506105f760048036038101906105f291906122ba565b611297565b6040516106049190612d5b565b60405180910390f35b34801561061957600080fd5b506106226112af565b60405161062f91906129cd565b60405180910390f35b34801561064457600080fd5b5061065f600480360381019061065a91906122ba565b6112d5565b005b600b60009054906101000a900460ff1681565b60007f80ac58cd000000000000000000000000000000000000000000000000000000007bffffffffffffffffffffffffffffffffffffffffffffffffffffffff1916827bffffffffffffffffffffffffffffffffffffffffffffffffffffffff1916148061073f57507f5b5e139f000000000000000000000000000000000000000000000000000000007bffffffffffffffffffffffffffffffffffffffffffffffffffffffff1916827bffffffffffffffffffffffffffffffffffffffffffffffffffffffff1916145b8061074f575061074e826113cd565b5b9050919050565b60606000805461076590612fa7565b80601f016020809104026020016040519081016040528092919081815260200182805461079190612fa7565b80156107de5780601f106107b3576101008083540402835291602001916107de565b820191906000526020600020905b8154815290600101906020018083116107c157829003601f168201915b5050505050905090565b60006107f382611437565b610832576040517f08c379a000000000000000000000000000000000000000000000000000000000815260040161082990612c5b565b60405180910390fd5b6004600083815260200190815260200160002060009054906101000a900473ffffffffffffffffffffffffffffffffffffffff169050919050565b600061087882610bf7565b90508073ffffffffffffffffffffffffffffffffffffffff168373ffffffffffffffffffffffffffffffffffffffff1614156108e9576040517f08c379a00000000000000000000000000000000000000000000000000000000081526004016108e090612c9b565b60405180910390fd5b8073ffffffffffffffffffffffffffffffffffffffff166109086114a3565b73ffffffffffffffffffffffffffffffffffffffff1614806109375750610936816109316114a3565b611203565b5b610976576040517f08c379a000000000000000000000000000000000000000000000000000000000815260040161096d90612bdb565b60405180910390fd5b61098083836114ab565b505050565b60085481565b6109936114a3565b73ffffffffffffffffffffffffffffffffffffffff166109b1610def565b73ffffffffffffffffffffffffffffffffffffffff1614610a07576040517f08c379a00000000000000000000000000000000000000000000000000000000081526004016109fe90612c7b565b60405180910390fd5b80600b60006101000a81548160ff02191690831515021790555050565b610a35610a2f6114a3565b82611564565b610a74576040517f08c379a0000000000000000000000000000000000000000000000000000000008152600401610a6b90612cbb565b60405180910390fd5b610a7f838383611642565b505050565b610a8c6114a3565b73ffffffffffffffffffffffffffffffffffffffff16610aaa610def565b73ffffffffffffffffffffffffffffffffffffffff1614610b00576040517f08c379a0000000000000000000000000000000000000000000000000000000008152600401610af790612c7b565b60405180910390fd5b6000600d60009054906101000a900473ffffffffffffffffffffffffffffffffffffffff1673ffffffffffffffffffffffffffffffffffffffff1647604051610b489061299d565b60006040518083038185875af1925050503d8060008114610b85576040519150601f19603f3d011682016040523d82523d6000602084013e610b8a565b606091505b5050905080610bce576040517f08c379a0000000000000000000000000000000000000000000000000000000008152600401610bc590612d3b565b60405180910390fd5b50565b610bec8383836040518060200160405280600081525061111f565b505050565b600a5481565b6000806002600084815260200190815260200160002060009054906101000a900473ffffffffffffffffffffffffffffffffffffffff169050600073ffffffffffffffffffffffffffffffffffffffff168173ffffffffffffffffffffffffffffffffffffffff161415610ca0576040517f08c379a0000000000000000000000000000000000000000000000000000000008152600401610c9790612c1b565b60405180910390fd5b80915050919050565b60075481565b60008073ffffffffffffffffffffffffffffffffffffffff168273ffffffffffffffffffffffffffffffffffffffff161415610d20576040517f08c379a0000000000000000000000000000000000000000000000000000000008152600401610d1790612bfb565b60405180910390fd5b600360008373ffffffffffffffffffffffffffffffffffffffff1673ffffffffffffffffffffffffffffffffffffffff168152602001908152602001600020549050919050565b610d6f6114a3565b73ffffffffffffffffffffffffffffffffffffffff16610d8d610def565b73ffffffffffffffffffffffffffffffffffffffff1614610de3576040517f08c379a0000000000000000000000000000000000000000000000000000000008152600401610dda90612c7b565b60405180910390fd5b610ded60006118a9565b565b6000600660009054906101000a900473ffffffffffffffffffffffffffffffffffffffff16905090565b610e216114a3565b73ffffffffffffffffffffffffffffffffffffffff16610e3f610def565b73ffffffffffffffffffffffffffffffffffffffff1614610e95576040517f08c379a0000000000000000000000000000000000000000000000000000000008152600401610e8c90612c7b565b60405180910390fd5b8181600c9190610ea69291906120fc565b505050565b606060018054610eba90612fa7565b80601f0160208091040260200160405190810160405280929190818152602001828054610ee690612fa7565b8015610f335780601f10610f0857610100808354040283529160200191610f33565b820191906000526020600020905b815481529060010190602001808311610f1657829003601f168201915b5050505050905090565b600b60009054906101000a900460ff16610f8c576040517f08c379a0000000000000000000000000000000000000000000000000000000008152600401610f8390612abb565b60405180910390fd5b600754341015610fd1576040517f08c379a0000000000000000000000000000000000000000000000000000000008152600401610fc890612d1b565b60405180910390fd5b60095481600854610fe29190612e24565b1115611023576040517f08c379a000000000000000000000000000000000000000000000000000000000815260040161101a90612cdb565b60405180910390fd5b600a5481600e60003373ffffffffffffffffffffffffffffffffffffffff1673ffffffffffffffffffffffffffffffffffffffff168152602001908152602001600020546110719190612e24565b11156110b2576040517f08c379a00000000000000000000000000000000000000000000000000000000081526004016110a990612cfb565b60405180910390fd5b60005b81811015611105576000816008546110cd9190612e24565b9050600860008154809291906110e29061300a565b91905055506110f1338261196f565b5080806110fd9061300a565b9150506110b5565b5050565b61111b6111146114a3565b838361198d565b5050565b61113061112a6114a3565b83611564565b61116f576040517f08c379a000000000000000000000000000000000000000000000000000000000815260040161116690612cbb565b60405180910390fd5b61117b84848484611afa565b50505050565b606061118c82611437565b6111cb576040517f08c379a00000000000000000000000000000000000000000000000000000000081526004016111c290612b9b565b60405180910390fd5b600c6111d683611b56565b6040516020016111e7929190612a71565b6040516020818303038152906040529050919050565b60095481565b6000600560008473ffffffffffffffffffffffffffffffffffffffff1673ffffffffffffffffffffffffffffffffffffffff16815260200190815260200160002060008373ffffffffffffffffffffffffffffffffffffffff1673ffffffffffffffffffffffffffffffffffffffff16815260200190815260200160002060009054906101000a900460ff16905092915050565b600e6020528060005260406000206000915090505481565b600d60009054906101000a900473ffffffffffffffffffffffffffffffffffffffff1681565b6112dd6114a3565b73ffffffffffffffffffffffffffffffffffffffff166112fb610def565b73ffffffffffffffffffffffffffffffffffffffff1614611351576040517f08c379a000000000000000000000000000000000000000000000000000000000815260040161134890612c7b565b60405180910390fd5b600073ffffffffffffffffffffffffffffffffffffffff168173ffffffffffffffffffffffffffffffffffffffff1614156113c1576040517f08c379a00000000000000000000000000000000000000000000000000000000081526004016113b890612afb565b60405180910390fd5b6113ca816118a9565b50565b60007f01ffc9a7000000000000000000000000000000000000000000000000000000007bffffffffffffffffffffffffffffffffffffffffffffffffffffffff1916827bffffffffffffffffffffffffffffffffffffffffffffffffffffffff1916149050919050565b60008073ffffffffffffffffffffffffffffffffffffffff166002600084815260200190815260200160002060009054906101000a900473ffffffffffffffffffffffffffffffffffffffff1673ffffffffffffffffffffffffffffffffffffffff1614159050919050565b600033905090565b816004600083815260200190815260200160002060006101000a81548173ffffffffffffffffffffffffffffffffffffffff021916908373ffffffffffffffffffffffffffffffffffffffff160217905550808273ffffffffffffffffffffffffffffffffffffffff1661151e83610bf7565b73ffffffffffffffffffffffffffffffffffffffff167f8c5be1e5ebec7d5bd14f71427d1e84f3dd0314c0f7b2291e5b200ac8c7c3b92560405160405180910390a45050565b600061156f82611437565b6115ae576040517f08c379a00000000000000000000000000000000000000000000000000000000081526004016115a590612bbb565b60405180910390fd5b60006115b983610bf7565b90508073ffffffffffffffffffffffffffffffffffffffff168473ffffffffffffffffffffffffffffffffffffffff1614806115fb57506115fa8185611203565b5b8061163957508373ffffffffffffffffffffffffffffffffffffffff16611621846107e8565b73ffffffffffffffffffffffffffffffffffffffff16145b91505092915050565b8273ffffffffffffffffffffffffffffffffffffffff1661166282610bf7565b73ffffffffffffffffffffffffffffffffffffffff16146116b8576040517f08c379a00000000000000000000000000000000000000000000000000000000081526004016116af90612b1b565b60405180910390fd5b600073ffffffffffffffffffffffffffffffffffffffff168273ffffffffffffffffffffffffffffffffffffffff161415611728576040517f08c379a000000000000000000000000000000000000000000000000000000000815260040161171f90612b5b565b60405180910390fd5b611733838383611d03565b61173e6000826114ab565b6001600360008573ffffffffffffffffffffffffffffffffffffffff1673ffffffffffffffffffffffffffffffffffffffff168152602001908152602001600020600082825461178e9190612eab565b925050819055506001600360008473ffffffffffffffffffffffffffffffffffffffff1673ffffffffffffffffffffffffffffffffffffffff16815260200190815260200160002060008282546117e59190612e24565b92505081905550816002600083815260200190815260200160002060006101000a81548173ffffffffffffffffffffffffffffffffffffffff021916908373ffffffffffffffffffffffffffffffffffffffff160217905550808273ffffffffffffffffffffffffffffffffffffffff168473ffffffffffffffffffffffffffffffffffffffff167fddf252ad1be2c89b69c2b068fc378daa952ba7f163c4a11628f55a4df523b3ef60405160405180910390a46118a4838383611d08565b505050565b6000600660009054906101000a900473ffffffffffffffffffffffffffffffffffffffff16905081600660006101000a81548173ffffffffffffffffffffffffffffffffffffffff021916908373ffffffffffffffffffffffffffffffffffffffff1602179055508173ffffffffffffffffffffffffffffffffffffffff168173ffffffffffffffffffffffffffffffffffffffff167f8be0079c531659141344cd1fd0a4f28419497f9722a3daafe3b4186f6b6457e060405160405180910390a35050565b611989828260405180602001604052806000815250611d0d565b5050565b8173ffffffffffffffffffffffffffffffffffffffff168373ffffffffffffffffffffffffffffffffffffffff1614156119fc576040517f08c379a00000000000000000000000000000000000000000000000000000000081526004016119f390612b7b565b60405180910390fd5b80600560008573ffffffffffffffffffffffffffffffffffffffff1673ffffffffffffffffffffffffffffffffffffffff16815260200190815260200160002060008473ffffffffffffffffffffffffffffffffffffffff1673ffffffffffffffffffffffffffffffffffffffff16815260200190815260200160002060006101000a81548160ff0219169083151502179055508173ffffffffffffffffffffffffffffffffffffffff168373ffffffffffffffffffffffffffffffffffffffff167f17307eab39ab6107e8899845ad3d59bd9653f200f220920489ca2b5937696c3183604051611aed9190612a34565b60405180910390a3505050565b611b05848484611642565b611b1184848484611d68565b611b50576040517f08c379a0000000000000000000000000000000000000000000000000000000008152600401611b4790612adb565b60405180910390fd5b50505050565b60606000821415611b9e576040518060400160405280600181526020017f30000000000000000000000000000000000000000000000000000000000000008152509050611cfe565b600082905060005b60008214611bd0578080611bb99061300a565b915050600a82611bc99190612e7a565b9150611ba6565b60008167ffffffffffffffff811115611c12577f4e487b7100000000000000000000000000000000000000000000000000000000600052604160045260246000fd5b6040519080825280601f01601f191660200182016040528015611c445781602001600182028036833780820191505090505b5090505b60008514611cf757600182611c5d9190612eab565b9150600a85611c6c9190613053565b6030611c789190612e24565b60f81b818381518110611cb4577f4e487b7100000000000000000000000000000000000000000000000000000000600052603260045260246000fd5b60200101907effffffffffffffffffffffffffffffffffffffffffffffffffffffffffffff1916908160001a905350600a85611cf09190612e7a565b9450611c48565b8093505050505b919050565b505050565b505050565b611d178383611eff565b611d246000848484611d68565b611d63576040517f08c379a0000000000000000000000000000000000000000000000000000000008152600401611d5a90612adb565b60405180910390fd5b505050565b6000611d898473ffffffffffffffffffffffffffffffffffffffff166120d9565b15611ef2578373ffffffffffffffffffffffffffffffffffffffff1663150b7a02611db26114a3565b8786866040518563ffffffff1660e01b8152600401611dd494939291906129e8565b602060405180830381600087803b158015611dee57600080fd5b505af1925050508015611e1f57506040513d601f19601f82011682018060405250810190611e1c91906124b3565b60015b611ea2573d8060008114611e4f576040519150601f19603f3d011682016040523d82523d6000602084013e611e54565b606091505b50600081511415611e9a576040517f08c379a0000000000000000000000000000000000000000000000000000000008152600401611e9190612adb565b60405180910390fd5b805181602001fd5b63150b7a0260e01b7bffffffffffffffffffffffffffffffffffffffffffffffffffffffff1916817bffffffffffffffffffffffffffffffffffffffffffffffffffffffff191614915050611ef7565b600190505b949350505050565b600073ffffffffffffffffffffffffffffffffffffffff168273ffffffffffffffffffffffffffffffffffffffff161415611f6f576040517f08c379a0000000000000000000000000000000000000000000000000000000008152600401611f6690612c3b565b60405180910390fd5b611f7881611437565b15611fb8576040517f08c379a0000000000000000000000000000000000000000000000000000000008152600401611faf90612b3b565b60405180910390fd5b611fc460008383611d03565b6001600360008473ffffffffffffffffffffffffffffffffffffffff1673ffffffffffffffffffffffffffffffffffffffff16815260200190815260200160002060008282546120149190612e24565b92505081905550816002600083815260200190815260200160002060006101000a81548173ffffffffffffffffffffffffffffffffffffffff021916908373ffffffffffffffffffffffffffffffffffffffff160217905550808273ffffffffffffffffffffffffffffffffffffffff16600073ffffffffffffffffffffffffffffffffffffffff167fddf252ad1be2c89b69c2b068fc378daa952ba7f163c4a11628f55a4df523b3ef60405160405180910390a46120d560008383611d08565b5050565b6000808273ffffffffffffffffffffffffffffffffffffffff163b119050919050565b82805461210890612fa7565b90600052602060002090601f01602090048101928261212a5760008555612171565b82601f1061214357803560ff1916838001178555612171565b82800160010185558215612171579182015b82811115612170578235825591602001919060010190612155565b5b50905061217e9190612182565b5090565b5b8082111561219b576000816000905550600101612183565b5090565b60006121b26121ad84612d9b565b612d76565b9050828152602081018484840111156121ca57600080fd5b6121d5848285612f65565b509392505050565b6000813590506121ec8161367c565b92915050565b60008135905061220181613693565b92915050565b600081359050612216816136aa565b92915050565b60008151905061222b816136aa565b92915050565b600082601f83011261224257600080fd5b813561225284826020860161219f565b91505092915050565b60008083601f84011261226d57600080fd5b8235905067ffffffffffffffff81111561228657600080fd5b60208301915083600182028301111561229e57600080fd5b9250929050565b6000813590506122b4816136c1565b92915050565b6000602082840312156122cc57600080fd5b60006122da848285016121dd565b91505092915050565b600080604083850312156122f657600080fd5b6000612304858286016121dd565b9250506020612315858286016121dd565b9150509250929050565b60008060006060848603121561233457600080fd5b6000612342868287016121dd565b9350506020612353868287016121dd565b9250506040612364868287016122a5565b9150509250925092565b6000806000806080858703121561238457600080fd5b6000612392878288016121dd565b94505060206123a3878288016121dd565b93505060406123b4878288016122a5565b925050606085013567ffffffffffffffff8111156123d157600080fd5b6123dd87828801612231565b91505092959194509250565b600080604083850312156123fc57600080fd5b600061240a858286016121dd565b925050602061241b858286016121f2565b9150509250929050565b6000806040838503121561243857600080fd5b6000612446858286016121dd565b9250506020612457858286016122a5565b9150509250929050565b60006020828403121561247357600080fd5b6000612481848285016121f2565b91505092915050565b60006020828403121561249c57600080fd5b60006124aa84828501612207565b91505092915050565b6000602082840312156124c557600080fd5b60006124d38482850161221c565b91505092915050565b600080602083850312156124ef57600080fd5b600083013567ffffffffffffffff81111561250957600080fd5b6125158582860161225b565b92509250509250929050565b60006020828403121561253357600080fd5b6000612541848285016122a5565b91505092915050565b61255381612ef1565b82525050565b61256281612edf565b82525050565b61257181612f03565b82525050565b600061258282612de1565b61258c8185612df7565b935061259c818560208601612f74565b6125a581613140565b840191505092915050565b60006125bb82612dec565b6125c58185612e13565b93506125d5818560208601612f74565b6125de81613140565b840191505092915050565b600081546125f681612fa7565b6126008186612e13565b9450600182166000811461261b576001811461262d57612660565b60ff1983168652602086019350612660565b61263685612dcc565b60005b8381101561265857815481890152600182019150602081019050612639565b808801955050505b50505092915050565b6000612676601a83612e13565b915061268182613151565b602082019050919050565b6000612699603283612e13565b91506126a48261317a565b604082019050919050565b60006126bc602683612e13565b91506126c7826131c9565b604082019050919050565b60006126df602583612e13565b91506126ea82613218565b604082019050919050565b6000612702601c83612e13565b915061270d82613267565b602082019050919050565b6000612725602483612e13565b915061273082613290565b604082019050919050565b6000612748601983612e13565b9150612753826132df565b602082019050919050565b600061276b601483612e13565b915061277682613308565b602082019050919050565b600061278e602c83612e13565b915061279982613331565b604082019050919050565b60006127b1603883612e13565b91506127bc82613380565b604082019050919050565b60006127d4602a83612e13565b91506127df826133cf565b604082019050919050565b60006127f7602983612e13565b91506128028261341e565b604082019050919050565b600061281a602083612e13565b91506128258261346d565b602082019050919050565b600061283d602c83612e13565b915061284882613496565b604082019050919050565b6000612860600583612e13565b915061286b826134e5565b602082019050919050565b6000612883602083612e13565b915061288e8261350e565b602082019050919050565b60006128a6602183612e13565b91506128b182613537565b604082019050919050565b60006128c9600083612e08565b91506128d482613586565b600082019050919050565b60006128ec603183612e13565b91506128f782613589565b604082019050919050565b600061290f601283612e13565b915061291a826135d8565b602082019050919050565b6000612932601683612e13565b915061293d82613601565b602082019050919050565b6000612955601083612e13565b91506129608261362a565b602082019050919050565b6000612978601183612e13565b915061298382613653565b602082019050919050565b61299781612f5b565b82525050565b60006129a8826128bc565b9150819050919050565b60006020820190506129c76000830184612559565b92915050565b60006020820190506129e2600083018461254a565b92915050565b60006080820190506129fd6000830187612559565b612a0a6020830186612559565b612a17604083018561298e565b8181036060830152612a298184612577565b905095945050505050565b6000602082019050612a496000830184612568565b92915050565b60006020820190508181036000830152612a6981846125b0565b905092915050565b60006060820190508181036000830152612a8b81856125e9565b90508181036020830152612a9f81846125b0565b90508181036040830152612ab281612853565b90509392505050565b60006020820190508181036000830152612ad481612669565b9050919050565b60006020820190508181036000830152612af48161268c565b9050919050565b60006020820190508181036000830152612b14816126af565b9050919050565b60006020820190508181036000830152612b34816126d2565b9050919050565b60006020820190508181036000830152612b54816126f5565b9050919050565b60006020820190508181036000830152612b7481612718565b9050919050565b60006020820190508181036000830152612b948161273b565b9050919050565b60006020820190508181036000830152612bb48161275e565b9050919050565b60006020820190508181036000830152612bd481612781565b9050919050565b60006020820190508181036000830152612bf4816127a4565b9050919050565b60006020820190508181036000830152612c14816127c7565b9050919050565b60006020820190508181036000830152612c34816127ea565b9050919050565b60006020820190508181036000830152612c548161280d565b9050919050565b60006020820190508181036000830152612c7481612830565b9050919050565b60006020820190508181036000830152612c9481612876565b9050919050565b60006020820190508181036000830152612cb481612899565b9050919050565b60006020820190508181036000830152612cd4816128df565b9050919050565b60006020820190508181036000830152612cf481612902565b9050919050565b60006020820190508181036000830152612d1481612925565b9050919050565b60006020820190508181036000830152612d3481612948565b9050919050565b60006020820190508181036000830152612d548161296b565b9050919050565b6000602082019050612d70600083018461298e565b92915050565b6000612d80612d91565b9050612d8c8282612fd9565b919050565b6000604051905090565b600067ffffffffffffffff821115612db657612db5613111565b5b612dbf82613140565b9050602081019050919050565b60008190508160005260206000209050919050565b600081519050919050565b600081519050919050565b600082825260208201905092915050565b600081905092915050565b600082825260208201905092915050565b6000612e2f82612f5b565b9150612e3a83612f5b565b9250827fffffffffffffffffffffffffffffffffffffffffffffffffffffffffffffffff03821115612e6f57612e6e613084565b5b828201905092915050565b6000612e8582612f5b565b9150612e9083612f5b565b925082612ea057612e9f6130b3565b5b828204905092915050565b6000612eb682612f5b565b9150612ec183612f5b565b925082821015612ed457612ed3613084565b5b828203905092915050565b6000612eea82612f3b565b9050919050565b6000612efc82612f3b565b9050919050565b60008115159050919050565b60007fffffffff0000000000000000000000000000000000000000000000000000000082169050919050565b600073ffffffffffffffffffffffffffffffffffffffff82169050919050565b6000819050919050565b82818337600083830152505050565b60005b83811015612f92578082015181840152602081019050612f77565b83811115612fa1576000848401525b50505050565b60006002820490506001821680612fbf57607f821691505b60208210811415612fd357612fd26130e2565b5b50919050565b612fe282613140565b810181811067ffffffffffffffff8211171561300157613000613111565b5b80604052505050565b600061301582612f5b565b91507fffffffffffffffffffffffffffffffffffffffffffffffffffffffffffffffff82141561304857613047613084565b5b600182019050919050565b600061305e82612f5b565b915061306983612f5b565b925082613079576130786130b3565b5b828206905092915050565b7f4e487b7100000000000000000000000000000000000000000000000000000000600052601160045260246000fd5b7f4e487b7100000000000000000000000000000000000000000000000000000000600052601260045260246000fd5b7f4e487b7100000000000000000000000000000000000000000000000000000000600052602260045260246000fd5b7f4e487b7100000000000000000000000000000000000000000000000000000000600052604160045260246000fd5b6000601f19601f8301169050919050565b7f5075626c6963206d696e74696e672069732064697361626c6564000000000000600082015250565b7f4552433732313a207472616e7366657220746f206e6f6e20455243373231526560008201527f63656976657220696d706c656d656e7465720000000000000000000000000000602082015250565b7f4f776e61626c653a206e6577206f776e657220697320746865207a65726f206160008201527f6464726573730000000000000000000000000000000000000000000000000000602082015250565b7f4552433732313a207472616e736665722066726f6d20696e636f72726563742060008201527f6f776e6572000000000000000000000000000000000000000000000000000000602082015250565b7f4552433732313a20746f6b656e20616c7265616479206d696e74656400000000600082015250565b7f4552433732313a207472616e7366657220746f20746865207a65726f2061646460008201527f7265737300000000000000000000000000000000000000000000000000000000602082015250565b7f4552433732313a20617070726f766520746f2063616c6c657200000000000000600082015250565b7f546f6b656e20646f6573206e6f74206578697374000000000000000000000000600082015250565b7f4552433732313a206f70657261746f7220717565727920666f72206e6f6e657860008201527f697374656e7420746f6b656e0000000000000000000000000000000000000000602082015250565b7f4552433732313a20617070726f76652063616c6c6572206973206e6f74206f7760008201527f6e6572206e6f7220617070726f76656420666f7220616c6c0000000000000000602082015250565b7f4552433732313a2062616c616e636520717565727920666f7220746865207a6560008201527f726f206164647265737300000000000000000000000000000000000000000000602082015250565b7f4552433732313a206f776e657220717565727920666f72206e6f6e657869737460008201527f656e7420746f6b656e0000000000000000000000000000000000000000000000602082015250565b7f4552433732313a206d696e7420746f20746865207a65726f2061646472657373600082015250565b7f4552433732313a20617070726f76656420717565727920666f72206e6f6e657860008201527f697374656e7420746f6b656e0000000000000000000000000000000000000000602082015250565b7f2e6a736f6e000000000000000000000000000000000000000000000000000000600082015250565b7f4f776e61626c653a2063616c6c6572206973206e6f7420746865206f776e6572600082015250565b7f4552433732313a20617070726f76616c20746f2063757272656e74206f776e6560008201527f7200000000000000000000000000000000000000000000000000000000000000602082015250565b50565b7f4552433732313a207472616e736665722063616c6c6572206973206e6f74206f60008201527f776e6572206e6f7220617070726f766564000000000000000000000000000000602082015250565b7f4d617820737570706c7920726561636865640000000000000000000000000000600082015250565b7f4d6178207065722077616c6c6574207265616368656400000000000000000000600082015250565b7f57726f6e67206d696e742076616c756500000000000000000000000000000000600082015250565b7f5769746864726177616c206661696c6564000000000000000000000000000000600082015250565b61368581612edf565b811461369057600080fd5b50565b61369c81612f03565b81146136a757600080fd5b50565b6136b381612f0f565b81146136be57600080fd5b50565b6136ca81612f5b565b81146136d557600080fd5b5056fea2646970667358221220a5286e98c76d567d3cd51610a6177dfe307d64f2fdd3def28b8493bd4797da4164736f6c63430008040033",
  "linkReferences": {},
  "deployedLinkReferences": {}
}